:100000000C942A000C9447000C9447000C94470071
:100010000C9447000C9447000C9447000C94470044
:100020000C9447000C9447000C9447000C94470034
:100030000C9447000C9449000C9447000C94470022
:100040000C9447000C9447000C9447000C94470014
:100050000C94470011241FBECFE5D8E0DEBFCDBF12
:1000600010E0A0E6B0E0E2E4F5E002C005900D92F9
:10007000AA3FB107D9F710E0AAEFB0E001C01D9286
:10008000AE3FB107E1F70E9465000C949F020C940B
:1000900000001F920F920FB60F9211248F939F931F
:1000A0008CB18093FD008091FD008CB991E090931C
:1000B000FB001092FC0088B3892788BB9F918F9129
:1000C0000F900FBE0F901F9018950F931F93DF9303
:1000D000CF93CDB7DEB760970FB6F894DEBF0FBEF3
:1000E000CDBF0E945202B89AC09A8E010F5F1F4F77
:1000F0009091FB00913011F58091FD00833239F42D
:100100001092FB001092FA009093FC002FC0809197
:10011000FA009091FD00F801E80FF11D9083109214
:10012000FB008091FA00803130F48091FA008F5FFB
:100130008093FA001BC08091FA0018C00E94C7018A
:10014000882391F08091FC00882371F0C8010E94FF
:10015000170290E002C010829F5FF801E90FF11DC5
:1001600080818823C1F702C00E94FC01829BC0CF1E
:100170000E945D01BDCF85BBDA98D998D89A80E2FC
:100180009EE40197F1F7D8980895EF92FF920F93AC
:100190001F938FEF84BB8ABB80E2E82E8EE4F82E9B
:1001A000C7010197F1F788E30E94BB0000ED17E05B
:1001B000C8010197F1F781E00E94BB00C8010197D7
:1001C000F1F782E00E94BB00C8010197F1F786E0D9
:1001D0000E94BB00C8010197F1F780E80E94BB00B4
:1001E000C7010197F1F78CE00E94BB00C70101979E
:1001F000F1F71F910F91FF90EF90089585BBDA9A68
:10020000D998D89A80EA9FE00197F1F7D898089595
:10021000882319F0813021F402C080E801C080EC0D
:10022000603108F4860F0E94BB0008950F931F935E
:10023000CF93DF938C01C0E0D0E003C00E94FE00AA
:100240002196F801EC0FFD1F8081882319F0C03141
:10025000D105A1F7DF91CF911F910F9108958AB138
:1002600088618AB980B5866880BD83E389B910BC8E
:10027000579A089587B3806E87BB88B38F7188BB08
:10028000089588B38F7188BB089598B39F7198BB08
:10029000882319F488B3806A02C088B3806C88BB55
:1002A000089520E002C030832F5FFC01E20FF11DB2
:1002B00031813323C1F71082089581E00E94BB0091
:1002C00080E690E00E94160188EA91E628EC30E092
:1002D000F9013197F1F70197D9F781E00E94BB004E
:1002E00085E790E00E941601CB9BFECF81E060E0A5
:1002F0000E9408018FE790E00E94160188E99AE3C6
:1003000028EC30E0F9013197F1F70197D9F781E056
:100310000E94BB008DE890E00E941601CC9BFECFAE
:1003200081E060E00E94080187E990E00E941601E8
:1003300088E99AE328EC30E0F9013197F1F7019769
:10034000D9F781E00E94BB0085EA90E00E94160187
:10035000089581E00E944501CC9BFECF0E9441019F
:10036000089580E00E944501CB9BFECF0E94410191
:1003700008950E94A90188E893E128EC30E0F90192
:100380003197F1F70197D9F70E94B101089589B328
:1003900082958F7080FF06C089B386958695869575
:1003A00080FF0BC089B382958F7080FD0AC089B32E
:1003B00086958695869580FD04C00E94B10181E0F6
:1003C000089589B382958F7080FD06C089B38695A4
:1003D0008695869580FD0EC089B382958F7080FFCB
:1003E00008C089B386958695869580FF02C080E017
:1003F0000895089581E008950E94410181E00E94DE
:10040000BB0010C080E060E00E94080181EB90E03A
:100410000E94160181E060E00E9408018EEB90E0EE
:100420000E9416010E94C701882361F30895CF93AB
:10043000DF93EC010E94C701882319F18881803382
:1004400051F481E00E94BB0080E060E00E9408015E
:1004500086EC90E022C08133B9F481E00E94BB00B9
:100460008EEC90E00E94160181E060E00E9408019D
:10047000CE010E945101CE010E9416010E94B901D5
:100480000EC00E94FC010BC081E00E94BB0080E016
:1004900060E00E94080186ED90E00E941601DF9165
:1004A000CF9108950E942F010E94C5000E943A0139
:1004B0000E948E0278944AB389B321E030E0B901FA
:1004C00002C0660F771F8A95E2F7CB0180958423DF
:1004D0008ABB9BB389B302C0220F331F8A95E2F710
:1004E000209529232BBB8A98D79887EE90E00E940D
:1004F000160188E893E128EC30E0F9013197F1F733
:100500000197D9F781E00E94BB0080E060E00E9483
:10051000080186ED90E00E941601089587B18F735F
:1005200087B987B1806C87B986B116B886B1887FE4
:1005300086B986B1876086B9349A379A0895F89457
:02054000FFCFEB
:1005420054726F75626C6553686F6F74696E672061
:100552004D4F444500507265737320535731005319
:10056200573120697320434C4F5345440050726504
:100572007373205357320053573220697320434C10
:100582004F53454400414C4C20495320444F4E4563
:1005920000434845434B20444F4F52277300535763
:1005A200495443485300554E4B4E4F574E00574502
:1005B2004C434F4D450057414954494E4720464F01
:1005C20052205541525400415454454E44414E43E9
:0A05D200452053595354454D0000D5
:00000001FF
