:100000000C942A000C946E000C9497000C94C00081
:100010000C9447000C9447000C9447000C94470044
:100020000C9447000C9447000C9447000C94470034
:100030000C9447000C9449000C9447000C94470022
:100040000C9447000C9447000C9447000C94470014
:100050000C94470011241FBECFE5D8E0DEBFCDBF12
:1000600010E0A0E6B0E0E6EDF1E002C005900D92F0
:10007000A036B107D9F710E0A0E6B0E001C01D92AC
:10008000A736B107E1F70E945E000C94E9000C94DA
:1000900000001F920F920FB60F9211248F939F931F
:1000A0008CB18093660082B391E0892782BB9F91D7
:1000B0008F910F900FBE0F901F901895B89A0E94C5
:1000C00063007894FFCF8AB188618AB980B5866869
:1000D00080BD83E389B910BC579A08951F920F928F
:1000E0000FB60F9211242F933F934F935F936F930B
:1000F0007F938F939F93AF93BF93EF93FF93E09181
:100100006000F0916100309709F00995FF91EF913F
:10011000BF91AF919F918F917F916F915F914F911F
:100120003F912F910F900FBE0F901F9018951F9227
:100130000F920FB60F9211242F933F934F935F931B
:100140006F937F938F939F93AF93BF93EF93FF939F
:10015000E0916200F0916300309709F00995FF91FA
:10016000EF91BF91AF919F918F917F916F915F912F
:100170004F913F912F910F900FBE0F901F901895A8
:100180001F920F920FB60F9211242F933F934F930C
:100190005F936F937F938F939F93AF93BF93EF93EF
:1001A000FF93E0916400F0916500309709F00995A4
:1001B000FF91EF91BF91AF919F918F917F916F913F
:1001C0005F914F913F912F910F900FBE0F901F9015
:0601D0001895F894FFCF22
:00000001FF
